{
    "_format": "hh-sol-artifact-1",
    "contractName": "DappMyMusic",
    "sourceName": "contracts/DappMyMusic.sol",
    "abi": [
        {
            "anonymous": false,
            "inputs": [
                {
                    "indexed": true,
                    "internalType": "address",
                    "name": "op",
                    "type": "address"
                },
                {
                    "indexed": true,
                    "internalType": "string",
                    "name": "songName",
                    "type": "string"
                },
                {
                    "components": [
                        {
                            "internalType": "address",
                            "name": "user",
                            "type": "address"
                        },
                        {
                            "internalType": "string",
                            "name": "userName",
                            "type": "string"
                        },
                        {
                            "internalType": "string",
                            "name": "songName",
                            "type": "string"
                        },
                        {
                            "internalType": "string",
                            "name": "artistName",
                            "type": "string"
                        },
                        {
                            "internalType": "string",
                            "name": "description",
                            "type": "string"
                        },
                        {
                            "internalType": "uint256",
                            "name": "creationDate",
                            "type": "uint256"
                        }
                    ],
                    "indexed": false,
                    "internalType": "struct DappMyMusic.DMMPost",
                    "name": "post",
                    "type": "tuple"
                }
            ],
            "name": "NewPost",
            "type": "event"
        },
        {
            "inputs": [
                {
                    "components": [
                        {
                            "internalType": "address",
                            "name": "user",
                            "type": "address"
                        },
                        {
                            "internalType": "string",
                            "name": "userName",
                            "type": "string"
                        },
                        {
                            "internalType": "string",
                            "name": "songName",
                            "type": "string"
                        },
                        {
                            "internalType": "string",
                            "name": "artistName",
                            "type": "string"
                        },
                        {
                            "internalType": "string",
                            "name": "description",
                            "type": "string"
                        },
                        {
                            "internalType": "uint256",
                            "name": "creationDate",
                            "type": "uint256"
                        }
                    ],
                    "internalType": "struct DappMyMusic.DMMPost",
                    "name": "post",
                    "type": "tuple"
                }
            ],
            "name": "addToMyTop5",
            "outputs": [
                {
                    "internalType": "bool",
                    "name": "",
                    "type": "bool"
                }
            ],
            "stateMutability": "nonpayable",
            "type": "function"
        },
        {
            "inputs": [
                {
                    "internalType": "string",
                    "name": "userName",
                    "type": "string"
                },
                {
                    "internalType": "string",
                    "name": "songName",
                    "type": "string"
                },
                {
                    "internalType": "string",
                    "name": "artistName",
                    "type": "string"
                },
                {
                    "internalType": "string",
                    "name": "description",
                    "type": "string"
                }
            ],
            "name": "createNewPost",
            "outputs": [],
            "stateMutability": "nonpayable",
            "type": "function"
        },
        {
            "inputs": [],
            "name": "getAllMyPosts",
            "outputs": [
                {
                    "components": [
                        {
                            "internalType": "address",
                            "name": "user",
                            "type": "address"
                        },
                        {
                            "internalType": "string",
                            "name": "userName",
                            "type": "string"
                        },
                        {
                            "internalType": "string",
                            "name": "songName",
                            "type": "string"
                        },
                        {
                            "internalType": "string",
                            "name": "artistName",
                            "type": "string"
                        },
                        {
                            "internalType": "string",
                            "name": "description",
                            "type": "string"
                        },
                        {
                            "internalType": "uint256",
                            "name": "creationDate",
                            "type": "uint256"
                        }
                    ],
                    "internalType": "struct DappMyMusic.DMMPost[]",
                    "name": "",
                    "type": "tuple[]"
                }
            ],
            "stateMutability": "view",
            "type": "function"
        },
        {
            "inputs": [],
            "name": "getMyTop5",
            "outputs": [
                {
                    "components": [
                        {
                            "internalType": "address",
                            "name": "user",
                            "type": "address"
                        },
                        {
                            "internalType": "string",
                            "name": "userName",
                            "type": "string"
                        },
                        {
                            "internalType": "string",
                            "name": "songName",
                            "type": "string"
                        },
                        {
                            "internalType": "string",
                            "name": "artistName",
                            "type": "string"
                        },
                        {
                            "internalType": "string",
                            "name": "description",
                            "type": "string"
                        },
                        {
                            "internalType": "uint256",
                            "name": "creationDate",
                            "type": "uint256"
                        }
                    ],
                    "internalType": "struct DappMyMusic.DMMPost[5]",
                    "name": "",
                    "type": "tuple[5]"
                }
            ],
            "stateMutability": "view",
            "type": "function"
        },
        {
            "inputs": [
                {
                    "internalType": "uint256",
                    "name": "index",
                    "type": "uint256"
                }
            ],
            "name": "removeFromMyTop5",
            "outputs": [],
            "stateMutability": "nonpayable",
            "type": "function"
        }
    ],
    "bytecode": "0x6080604052348015600f57600080fd5b50611c038061001f6000396000f3fe608060405234801561001057600080fd5b50600436106100575760003560e01c80633e08939e1461005c57806341f7a9ad1461007a57806342b8c4f9146100aa5780634e92d317146100c6578063ee8c9dde146100e4575b600080fd5b610064610100565b6040516100719190610f50565b60405180910390f35b610094600480360381019061008f9190610fa0565b610407565b6040516100a19190611004565b60405180910390f35b6100c460048036038101906100bf9190611084565b6104d0565b005b6100ce610712565b6040516100db919061120f565b60405180910390f35b6100fe60048036038101906100f9919061125d565b610a0c565b005b6060601e805480602002602001604051908101604052809291908181526020016000905b828210156103fe57838290600052602060002090600602016040518060c00160405290816000820160009054906101000a900473ffffffffffffffffffffffffffffffffffffffff1673ffffffffffffffffffffffffffffffffffffffff1673ffffffffffffffffffffffffffffffffffffffff1681526020016001820180546101ad906112b9565b80601f01602080910402602001604051908101604052809291908181526020018280546101d9906112b9565b80156102265780601f106101fb57610100808354040283529160200191610226565b820191906000526020600020905b81548152906001019060200180831161020957829003601f168201915b5050505050815260200160028201805461023f906112b9565b80601f016020809104026020016040519081016040528092919081815260200182805461026b906112b9565b80156102b85780601f1061028d576101008083540402835291602001916102b8565b820191906000526020600020905b81548152906001019060200180831161029b57829003601f168201915b505050505081526020016003820180546102d1906112b9565b80601f01602080910402602001604051908101604052809291908181526020018280546102fd906112b9565b801561034a5780601f1061031f5761010080835404028352916020019161034a565b820191906000526020600020905b81548152906001019060200180831161032d57829003601f168201915b50505050508152602001600482018054610363906112b9565b80601f016020809104026020016040519081016040528092919081815260200182805461038f906112b9565b80156103dc5780601f106103b1576101008083540402835291602001916103dc565b820191906000526020600020905b8154815290600101906020018083116103bf57829003601f168201915b5050505050815260200160058201548152505081526020019060010190610124565b50505050905090565b600080600090505b60058110156104c5573373ffffffffffffffffffffffffffffffffffffffff1660008260058110610443576104426112ea565b5b6006020160000160009054906101000a900473ffffffffffffffffffffffffffffffffffffffff1673ffffffffffffffffffffffffffffffffffffffff16146104b857826000826005811061049b5761049a6112ea565b5b6006020181816104ab9190611879565b90505060019150506104cb565b808060010191505061040f565b50600090505b919050565b60006040518060c001604052803373ffffffffffffffffffffffffffffffffffffffff1681526020018a8a8080601f016020809104026020016040519081016040528093929190818152602001838380828437600081840152601f19601f82011690508083019250505050505050815260200188888080601f016020809104026020016040519081016040528093929190818152602001838380828437600081840152601f19601f82011690508083019250505050505050815260200186868080601f016020809104026020016040519081016040528093929190818152602001838380828437600081840152601f19601f82011690508083019250505050505050815260200184848080601f016020809104026020016040519081016040528093929190818152602001838380828437600081840152601f19601f820116905080830192505050505050508152602001428152509050601e81908060018154018082558091505060019003906000526020600020906006020160009091909190915060008201518160000160006101000a81548173ffffffffffffffffffffffffffffffffffffffff021916908373ffffffffffffffffffffffffffffffffffffffff16021790555060208201518160010190816106af9190611887565b5060408201518160020190816106c59190611887565b5060608201518160030190816106db9190611887565b5060808201518160040190816106f19190611887565b5060a08201518160050155505061070781610bc5565b505050505050505050565b61071a610c30565b6000600580602002604051908101604052809291906000905b82821015610a03578382600602016040518060c00160405290816000820160009054906101000a900473ffffffffffffffffffffffffffffffffffffffff1673ffffffffffffffffffffffffffffffffffffffff1673ffffffffffffffffffffffffffffffffffffffff1681526020016001820180546107b2906112b9565b80601f01602080910402602001604051908101604052809291908181526020018280546107de906112b9565b801561082b5780601f106108005761010080835404028352916020019161082b565b820191906000526020600020905b81548152906001019060200180831161080e57829003601f168201915b50505050508152602001600282018054610844906112b9565b80601f0160208091040260200160405190810160405280929190818152602001828054610870906112b9565b80156108bd5780601f10610892576101008083540402835291602001916108bd565b820191906000526020600020905b8154815290600101906020018083116108a057829003601f168201915b505050505081526020016003820180546108d6906112b9565b80601f0160208091040260200160405190810160405280929190818152602001828054610902906112b9565b801561094f5780601f106109245761010080835404028352916020019161094f565b820191906000526020600020905b81548152906001019060200180831161093257829003601f168201915b50505050508152602001600482018054610968906112b9565b80601f0160208091040260200160405190810160405280929190818152602001828054610994906112b9565b80156109e15780601f106109b6576101008083540402835291602001916109e1565b820191906000526020600020905b8154815290600101906020018083116109c457829003601f168201915b5050505050815260200160058201548152505081526020019060010190610733565b50505050905090565b6005811015610bc25760008190505b6004811015610b35576000600182610a339190611988565b60058110610a4457610a436112ea565b5b6006020160008260058110610a5c57610a5b6112ea565b5b600602016000820160009054906101000a900473ffffffffffffffffffffffffffffffffffffffff168160000160006101000a81548173ffffffffffffffffffffffffffffffffffffffff021916908373ffffffffffffffffffffffffffffffffffffffff16021790555060018201816001019081610adb91906119d2565b5060028201816002019081610af091906119d2565b5060038201816003019081610b0591906119d2565b5060048201816004019081610b1a91906119d2565b50600582015481600501559050508080600101915050610a1b565b506000600460058110610b4b57610b4a6112ea565b5b60060201600080820160006101000a81549073ffffffffffffffffffffffffffffffffffffffff0219169055600182016000610b879190610c5d565b600282016000610b979190610c5d565b600382016000610ba79190610c5d565b600482016000610bb79190610c5d565b600582016000905550505b50565b8060400151604051610bd79190611af6565b60405180910390203373ffffffffffffffffffffffffffffffffffffffff167f5c04cc0220383ddba386f3285214b385f0b212fe4076d288b0252cf09bbaff6183604051610c259190611bab565b60405180910390a350565b6040518060a001604052806005905b610c47610c9d565b815260200190600190039081610c3f5790505090565b508054610c69906112b9565b6000825580601f10610c7b5750610c9a565b601f016020900490600052602060002090810190610c999190610ce9565b5b50565b6040518060c00160405280600073ffffffffffffffffffffffffffffffffffffffff16815260200160608152602001606081526020016060815260200160608152602001600081525090565b5b80821115610d02576000816000905550600101610cea565b5090565b600081519050919050565b600082825260208201905092915050565b6000819050602082019050919050565b600073ffffffffffffffffffffffffffffffffffffffff82169050919050565b6000610d5d82610d32565b9050919050565b610d6d81610d52565b82525050565b600081519050919050565b600082825260208201905092915050565b60005b83811015610dad578082015181840152602081019050610d92565b60008484015250505050565b6000601f19601f8301169050919050565b6000610dd582610d73565b610ddf8185610d7e565b9350610def818560208601610d8f565b610df881610db9565b840191505092915050565b6000819050919050565b610e1681610e03565b82525050565b600060c083016000830151610e346000860182610d64565b5060208301518482036020860152610e4c8282610dca565b91505060408301518482036040860152610e668282610dca565b91505060608301518482036060860152610e808282610dca565b91505060808301518482036080860152610e9a8282610dca565b91505060a0830151610eaf60a0860182610e0d565b508091505092915050565b6000610ec68383610e1c565b905092915050565b6000602082019050919050565b6000610ee682610d06565b610ef08185610d11565b935083602082028501610f0285610d22565b8060005b85811015610f3e5784840389528151610f1f8582610eba565b9450610f2a83610ece565b925060208a01995050600181019050610f06565b50829750879550505050505092915050565b60006020820190508181036000830152610f6a8184610edb565b905092915050565b600080fd5b600080fd5b600080fd5b600060c08284031215610f9757610f96610f7c565b5b81905092915050565b600060208284031215610fb657610fb5610f72565b5b600082013567ffffffffffffffff811115610fd457610fd3610f77565b5b610fe084828501610f81565b91505092915050565b60008115159050919050565b610ffe81610fe9565b82525050565b60006020820190506110196000830184610ff5565b92915050565b600080fd5b600080fd5b600080fd5b60008083601f8401126110445761104361101f565b5b8235905067ffffffffffffffff81111561106157611060611024565b5b60208301915083600182028301111561107d5761107c611029565b5b9250929050565b6000806000806000806000806080898b0312156110a4576110a3610f72565b5b600089013567ffffffffffffffff8111156110c2576110c1610f77565b5b6110ce8b828c0161102e565b9850985050602089013567ffffffffffffffff8111156110f1576110f0610f77565b5b6110fd8b828c0161102e565b9650965050604089013567ffffffffffffffff8111156111205761111f610f77565b5b61112c8b828c0161102e565b9450945050606089013567ffffffffffffffff81111561114f5761114e610f77565b5b61115b8b828c0161102e565b92509250509295985092959890939650565b600060059050919050565b600081905092915050565b6000819050919050565b6000602082019050919050565b60006111a58261116d565b6111af8185611178565b9350836020820285016111c185611183565b8060005b858110156111fd57848403895281516111de8582610eba565b94506111e98361118d565b925060208a019950506001810190506111c5565b50829750879550505050505092915050565b60006020820190508181036000830152611229818461119a565b905092915050565b61123a81610e03565b811461124557600080fd5b50565b60008135905061125781611231565b92915050565b60006020828403121561127357611272610f72565b5b600061128184828501611248565b91505092915050565b7f4e487b7100000000000000000000000000000000000000000000000000000000600052602260045260246000fd5b600060028204905060018216806112d157607f821691505b6020821081036112e4576112e361128a565b5b50919050565b7f4e487b7100000000000000000000000000000000000000000000000000000000600052603260045260246000fd5b61132281610d52565b811461132d57600080fd5b50565b6000813561133d81611319565b80915050919050565b60008160001b9050919050565b600073ffffffffffffffffffffffffffffffffffffffff61137384611346565b9350801983169250808416831791505092915050565b6000819050919050565b60006113ae6113a96113a484610d32565b611389565b610d32565b9050919050565b60006113c082611393565b9050919050565b60006113d2826113b5565b9050919050565b6000819050919050565b6113ec826113c7565b6113ff6113f8826113d9565b8354611353565b8255505050565b600080fd5b600080fd5b600080fd5b6000808335600160200384360303811261143257611431611406565b5b80840192508235915067ffffffffffffffff8211156114545761145361140b565b5b6020830192506001820236038313156114705761146f611410565b5b509250929050565b600082905092915050565b7f4e487b7100000000000000000000000000000000000000000000000000000000600052604160045260246000fd5b60008190508160005260206000209050919050565b60006020601f8301049050919050565b600082821b905092915050565b6000600883026115147fffffffffffffffffffffffffffffffffffffffffffffffffffffffffffffffff826114d7565b61151e86836114d7565b95508019841693508086168417925050509392505050565b600061155161154c61154784610e03565b611389565b610e03565b9050919050565b6000819050919050565b61156b83611536565b61157f61157782611558565b8484546114e4565b825550505050565b600090565b611594611587565b61159f818484611562565b505050565b5b818110156115c3576115b860008261158c565b6001810190506115a5565b5050565b601f821115611608576115d9816114b2565b6115e2846114c7565b810160208510156115f1578190505b6116056115fd856114c7565b8301826115a4565b50505b505050565b600082821c905092915050565b600061162b6000198460080261160d565b1980831691505092915050565b6000611644838361161a565b9150826002028217905092915050565b61165e8383611478565b67ffffffffffffffff81111561167757611676611483565b5b61168182546112b9565b61168c8282856115c7565b6000601f8311600181146116bb57600084156116a9578287013590505b6116b38582611638565b86555061171b565b601f1984166116c9866114b2565b60005b828110156116f1578489013582556001820191506020850194506020810190506116cc565b8683101561170e578489013561170a601f89168261161a565b8355505b6001600288020188555050505b50505050505050565b61172f838383611654565b505050565b6000813561174181611231565b80915050919050565b60007fffffffffffffffffffffffffffffffffffffffffffffffffffffffffffffffff61177684611346565b9350801983169250808416831791505092915050565b61179582611536565b6117a86117a182611558565b835461174a565b8255505050565b6000810160008301806117c181611330565b90506117cd81846113e3565b50505060018101602083016117e28185611415565b6117ed818386611724565b5050505060028101604083016118038185611415565b61180e818386611724565b5050505060038101606083016118248185611415565b61182f818386611724565b5050505060048101608083016118458185611415565b611850818386611724565b505050506005810160a083018061186681611734565b9050611872818461178c565b5050505050565b61188382826117af565b5050565b61189082610d73565b67ffffffffffffffff8111156118a9576118a8611483565b5b6118b382546112b9565b6118be8282856115c7565b600060209050601f8311600181146118f157600084156118df578287015190505b6118e98582611638565b865550611951565b601f1984166118ff866114b2565b60005b8281101561192757848901518255600182019150602085019450602081019050611902565b868310156119445784890151611940601f89168261161a565b8355505b6001600288020188555050505b505050505050565b7f4e487b7100000000000000000000000000000000000000000000000000000000600052601160045260246000fd5b600061199382610e03565b915061199e83610e03565b92508282019050808211156119b6576119b5611959565b5b92915050565b6000815490506119cb816112b9565b9050919050565b8181036119e0575050611ab8565b6119e9826119bc565b67ffffffffffffffff811115611a0257611a01611483565b5b611a0c82546112b9565b611a178282856115c7565b6000601f831160018114611a465760008415611a34578287015490505b611a3e8582611638565b865550611ab1565b601f198416611a54876114b2565b9650611a5f866114b2565b60005b82811015611a8757848901548255600182019150600185019450602081019050611a62565b86831015611aa45784890154611aa0601f89168261161a565b8355505b6001600288020188555050505b5050505050505b565b600081905092915050565b6000611ad082610d73565b611ada8185611aba565b9350611aea818560208601610d8f565b80840191505092915050565b6000611b028284611ac5565b915081905092915050565b600060c083016000830151611b256000860182610d64565b5060208301518482036020860152611b3d8282610dca565b91505060408301518482036040860152611b578282610dca565b91505060608301518482036060860152611b718282610dca565b91505060808301518482036080860152611b8b8282610dca565b91505060a0830151611ba060a0860182610e0d565b508091505092915050565b60006020820190508181036000830152611bc58184611b0d565b90509291505056fea2646970667358221220a572eb1e8790bb942fa9eb88260aab97367ce99ad5185dd64f42bc802d96c92564736f6c634300081c0033",
    "linkReferences": {},
    "deployedLinkReferences": {}
}