{
    "_format": "hh-sol-artifact-1",
    "contractName": "DMM",
    "sourceName": "contracts/DMM.sol",
    "abi": [
        {
            "anonymous": false,
            "inputs": [
                {
                    "indexed": true,
                    "internalType": "address",
                    "name": "op",
                    "type": "address"
                },
                {
                    "indexed": true,
                    "internalType": "string",
                    "name": "songName",
                    "type": "string"
                },
                {
                    "components": [
                        {
                            "internalType": "address",
                            "name": "user",
                            "type": "address"
                        },
                        {
                            "internalType": "string",
                            "name": "userName",
                            "type": "string"
                        },
                        {
                            "internalType": "string",
                            "name": "spotifyID",
                            "type": "string"
                        },
                        {
                            "internalType": "string",
                            "name": "songName",
                            "type": "string"
                        },
                        {
                            "internalType": "string",
                            "name": "artistName",
                            "type": "string"
                        },
                        {
                            "internalType": "string",
                            "name": "description",
                            "type": "string"
                        },
                        {
                            "internalType": "uint256",
                            "name": "creationDate",
                            "type": "uint256"
                        }
                    ],
                    "indexed": false,
                    "internalType": "struct DMM.DMMPost",
                    "name": "post",
                    "type": "tuple"
                }
            ],
            "name": "NewPost",
            "type": "event"
        },
        {
            "inputs": [
                {
                    "components": [
                        {
                            "internalType": "address",
                            "name": "user",
                            "type": "address"
                        },
                        {
                            "internalType": "string",
                            "name": "userName",
                            "type": "string"
                        },
                        {
                            "internalType": "string",
                            "name": "spotifyID",
                            "type": "string"
                        },
                        {
                            "internalType": "string",
                            "name": "songName",
                            "type": "string"
                        },
                        {
                            "internalType": "string",
                            "name": "artistName",
                            "type": "string"
                        },
                        {
                            "internalType": "string",
                            "name": "description",
                            "type": "string"
                        },
                        {
                            "internalType": "uint256",
                            "name": "creationDate",
                            "type": "uint256"
                        }
                    ],
                    "internalType": "struct DMM.DMMPost",
                    "name": "post",
                    "type": "tuple"
                }
            ],
            "name": "addToMyTop5",
            "outputs": [
                {
                    "internalType": "bool",
                    "name": "",
                    "type": "bool"
                }
            ],
            "stateMutability": "nonpayable",
            "type": "function"
        },
        {
            "inputs": [
                {
                    "internalType": "string",
                    "name": "userName",
                    "type": "string"
                },
                {
                    "internalType": "string",
                    "name": "spotifyID",
                    "type": "string"
                },
                {
                    "internalType": "string",
                    "name": "songName",
                    "type": "string"
                },
                {
                    "internalType": "string",
                    "name": "artistName",
                    "type": "string"
                },
                {
                    "internalType": "string",
                    "name": "description",
                    "type": "string"
                }
            ],
            "name": "createNewPost",
            "outputs": [],
            "stateMutability": "nonpayable",
            "type": "function"
        },
        {
            "inputs": [],
            "name": "getAllMyPosts",
            "outputs": [
                {
                    "components": [
                        {
                            "internalType": "address",
                            "name": "user",
                            "type": "address"
                        },
                        {
                            "internalType": "string",
                            "name": "userName",
                            "type": "string"
                        },
                        {
                            "internalType": "string",
                            "name": "spotifyID",
                            "type": "string"
                        },
                        {
                            "internalType": "string",
                            "name": "songName",
                            "type": "string"
                        },
                        {
                            "internalType": "string",
                            "name": "artistName",
                            "type": "string"
                        },
                        {
                            "internalType": "string",
                            "name": "description",
                            "type": "string"
                        },
                        {
                            "internalType": "uint256",
                            "name": "creationDate",
                            "type": "uint256"
                        }
                    ],
                    "internalType": "struct DMM.DMMPost[]",
                    "name": "",
                    "type": "tuple[]"
                }
            ],
            "stateMutability": "view",
            "type": "function"
        },
        {
            "inputs": [],
            "name": "getMyTop5",
            "outputs": [
                {
                    "components": [
                        {
                            "internalType": "address",
                            "name": "user",
                            "type": "address"
                        },
                        {
                            "internalType": "string",
                            "name": "userName",
                            "type": "string"
                        },
                        {
                            "internalType": "string",
                            "name": "spotifyID",
                            "type": "string"
                        },
                        {
                            "internalType": "string",
                            "name": "songName",
                            "type": "string"
                        },
                        {
                            "internalType": "string",
                            "name": "artistName",
                            "type": "string"
                        },
                        {
                            "internalType": "string",
                            "name": "description",
                            "type": "string"
                        },
                        {
                            "internalType": "uint256",
                            "name": "creationDate",
                            "type": "uint256"
                        }
                    ],
                    "internalType": "struct DMM.DMMPost[5]",
                    "name": "",
                    "type": "tuple[5]"
                }
            ],
            "stateMutability": "view",
            "type": "function"
        },
        {
            "inputs": [
                {
                    "internalType": "uint256",
                    "name": "index",
                    "type": "uint256"
                }
            ],
            "name": "removeFromMyTop5",
            "outputs": [],
            "stateMutability": "nonpayable",
            "type": "function"
        }
    ],
    "bytecode": "0x6080604052348015600f57600080fd5b506122b28061001f6000396000f3fe608060405234801561001057600080fd5b50600436106100575760003560e01c80633e08939e1461005c5780634e92d3171461007a5780638428dc1e14610098578063b0965304146100c8578063ee8c9dde146100e4575b600080fd5b610064610100565b6040516100719190611467565b60405180910390f35b6100826104d5565b60405161008f919061152b565b60405180910390f35b6100b260048036038101906100ad919061157b565b61089e565b6040516100bf91906115df565b60405180910390f35b6100e260048036038101906100dd919061165f565b610b1c565b005b6100fe60048036038101906100f991906117a8565b610e26565b005b60606000803373ffffffffffffffffffffffffffffffffffffffff1673ffffffffffffffffffffffffffffffffffffffff168152602001908152602001600020805480602002602001604051908101604052809291908181526020016000905b828210156104cc57838290600052602060002090600702016040518060e00160405290816000820160009054906101000a900473ffffffffffffffffffffffffffffffffffffffff1673ffffffffffffffffffffffffffffffffffffffff1673ffffffffffffffffffffffffffffffffffffffff1681526020016001820180546101e990611804565b80601f016020809104026020016040519081016040528092919081815260200182805461021590611804565b80156102625780601f1061023757610100808354040283529160200191610262565b820191906000526020600020905b81548152906001019060200180831161024557829003601f168201915b5050505050815260200160028201805461027b90611804565b80601f01602080910402602001604051908101604052809291908181526020018280546102a790611804565b80156102f45780601f106102c9576101008083540402835291602001916102f4565b820191906000526020600020905b8154815290600101906020018083116102d757829003601f168201915b5050505050815260200160038201805461030d90611804565b80601f016020809104026020016040519081016040528092919081815260200182805461033990611804565b80156103865780601f1061035b57610100808354040283529160200191610386565b820191906000526020600020905b81548152906001019060200180831161036957829003601f168201915b5050505050815260200160048201805461039f90611804565b80601f01602080910402602001604051908101604052809291908181526020018280546103cb90611804565b80156104185780601f106103ed57610100808354040283529160200191610418565b820191906000526020600020905b8154815290600101906020018083116103fb57829003601f168201915b5050505050815260200160058201805461043190611804565b80601f016020809104026020016040519081016040528092919081815260200182805461045d90611804565b80156104aa5780601f1061047f576101008083540402835291602001916104aa565b820191906000526020600020905b81548152906001019060200180831161048d57829003601f168201915b5050505050815260200160068201548152505081526020019060010190610160565b50505050905090565b6104dd611126565b600160003373ffffffffffffffffffffffffffffffffffffffff1673ffffffffffffffffffffffffffffffffffffffff168152602001908152602001600020600580602002604051908101604052809291906000905b82821015610895578382600702016040518060e00160405290816000820160009054906101000a900473ffffffffffffffffffffffffffffffffffffffff1673ffffffffffffffffffffffffffffffffffffffff1673ffffffffffffffffffffffffffffffffffffffff1681526020016001820180546105b290611804565b80601f01602080910402602001604051908101604052809291908181526020018280546105de90611804565b801561062b5780601f106106005761010080835404028352916020019161062b565b820191906000526020600020905b81548152906001019060200180831161060e57829003601f168201915b5050505050815260200160028201805461064490611804565b80601f016020809104026020016040519081016040528092919081815260200182805461067090611804565b80156106bd5780601f10610692576101008083540402835291602001916106bd565b820191906000526020600020905b8154815290600101906020018083116106a057829003601f168201915b505050505081526020016003820180546106d690611804565b80601f016020809104026020016040519081016040528092919081815260200182805461070290611804565b801561074f5780601f106107245761010080835404028352916020019161074f565b820191906000526020600020905b81548152906001019060200180831161073257829003601f168201915b5050505050815260200160048201805461076890611804565b80601f016020809104026020016040519081016040528092919081815260200182805461079490611804565b80156107e15780601f106107b6576101008083540402835291602001916107e1565b820191906000526020600020905b8154815290600101906020018083116107c457829003601f168201915b505050505081526020016005820180546107fa90611804565b80601f016020809104026020016040519081016040528092919081815260200182805461082690611804565b80156108735780601f1061084857610100808354040283529160200191610873565b820191906000526020600020905b81548152906001019060200180831161085657829003601f168201915b5050505050815260200160068201548152505081526020019060010190610533565b50505050905090565b600080600090505b6005811015610b11578260000160208101906108c29190611861565b73ffffffffffffffffffffffffffffffffffffffff16600160003373ffffffffffffffffffffffffffffffffffffffff1673ffffffffffffffffffffffffffffffffffffffff16815260200190815260200160002082600581106109295761092861188e565b5b6007020160000160009054906101000a900473ffffffffffffffffffffffffffffffffffffffff1673ffffffffffffffffffffffffffffffffffffffff16148015610a26575082806040019061097f91906118cc565b60405160200161099092919061196e565b60405160208183030381529060405280519060200120600160003373ffffffffffffffffffffffffffffffffffffffff1673ffffffffffffffffffffffffffffffffffffffff16815260200190815260200160002082600581106109f7576109f661188e565b5b60070201600201604051602001610a0e9190611a1f565b60405160208183030381529060405280519060200120145b15610a35576000915050610b17565b6000600160003373ffffffffffffffffffffffffffffffffffffffff1673ffffffffffffffffffffffffffffffffffffffff1681526020019081526020016000208260058110610a8857610a8761188e565b5b600702016006015403610b045782600160003373ffffffffffffffffffffffffffffffffffffffff1673ffffffffffffffffffffffffffffffffffffffff1681526020019081526020016000208260058110610ae757610ae661188e565b5b600702018181610af79190611f19565b9050506001915050610b17565b80806001019150506108a6565b50600090505b919050565b610b24611153565b33816000019073ffffffffffffffffffffffffffffffffffffffff16908173ffffffffffffffffffffffffffffffffffffffff16815250508a8a8080601f016020809104026020016040519081016040528093929190818152602001838380828437600081840152601f19601f82011690508083019250505050505050816020018190525088888080601f016020809104026020016040519081016040528093929190818152602001838380828437600081840152601f19601f82011690508083019250505050505050816040018190525086868080601f016020809104026020016040519081016040528093929190818152602001838380828437600081840152601f19601f82011690508083019250505050505050816060018190525084848080601f016020809104026020016040519081016040528093929190818152602001838380828437600081840152601f19601f82011690508083019250505050505050816080018190525082828080601f016020809104026020016040519081016040528093929190818152602001838380828437600081840152601f19601f820116905080830192505050505050508160a00181905250428160c00181815250506000803373ffffffffffffffffffffffffffffffffffffffff1673ffffffffffffffffffffffffffffffffffffffff16815260200190815260200160002081908060018154018082558091505060019003906000526020600020906007020160009091909190915060008201518160000160006101000a81548173ffffffffffffffffffffffffffffffffffffffff021916908373ffffffffffffffffffffffffffffffffffffffff1602179055506020820151816001019081610dab9190611f27565b506040820151816002019081610dc19190611f27565b506060820151816003019081610dd79190611f27565b506080820151816004019081610ded9190611f27565b5060a0820151816005019081610e039190611f27565b5060c082015181600601555050610e19816110bb565b5050505050505050505050565b60058110156110b85760008190505b6004811015610fde57600160003373ffffffffffffffffffffffffffffffffffffffff1673ffffffffffffffffffffffffffffffffffffffff168152602001908152602001600020600182610e8a9190612028565b60058110610e9b57610e9a61188e565b5b60070201600160003373ffffffffffffffffffffffffffffffffffffffff1673ffffffffffffffffffffffffffffffffffffffff1681526020019081526020016000208260058110610ef057610eef61188e565b5b600702016000820160009054906101000a900473ffffffffffffffffffffffffffffffffffffffff168160000160006101000a81548173ffffffffffffffffffffffffffffffffffffffff021916908373ffffffffffffffffffffffffffffffffffffffff16021790555060018201816001019081610f6f9190612072565b5060028201816002019081610f849190612072565b5060038201816003019081610f999190612072565b5060048201816004019081610fae9190612072565b5060058201816005019081610fc39190612072565b50600682015481600601559050508080600101915050610e35565b50600160003373ffffffffffffffffffffffffffffffffffffffff1673ffffffffffffffffffffffffffffffffffffffff1681526020019081526020016000206004600581106110315761103061188e565b5b60070201600080820160006101000a81549073ffffffffffffffffffffffffffffffffffffffff021916905560018201600061106d91906111a6565b60028201600061107d91906111a6565b60038201600061108d91906111a6565b60048201600061109d91906111a6565b6005820160006110ad91906111a6565b600682016000905550505b50565b80606001516040516110cd919061218b565b60405180910390203373ffffffffffffffffffffffffffffffffffffffff167f3930709a1c6a97c53928893ff38297d45e2a3b50a60add7ab3009b16f1736f728360405161111b919061225a565b60405180910390a350565b6040518060a001604052806005905b61113d611153565b8152602001906001900390816111355790505090565b6040518060e00160405280600073ffffffffffffffffffffffffffffffffffffffff1681526020016060815260200160608152602001606081526020016060815260200160608152602001600081525090565b5080546111b290611804565b6000825580601f106111c457506111e3565b601f0160209004906000526020600020908101906111e291906111e6565b5b50565b5b808211156111ff5760008160009055506001016111e7565b5090565b600081519050919050565b600082825260208201905092915050565b6000819050602082019050919050565b600073ffffffffffffffffffffffffffffffffffffffff82169050919050565b600061125a8261122f565b9050919050565b61126a8161124f565b82525050565b600081519050919050565b600082825260208201905092915050565b60005b838110156112aa57808201518184015260208101905061128f565b60008484015250505050565b6000601f19601f8301169050919050565b60006112d282611270565b6112dc818561127b565b93506112ec81856020860161128c565b6112f5816112b6565b840191505092915050565b6000819050919050565b61131381611300565b82525050565b600060e0830160008301516113316000860182611261565b506020830151848203602086015261134982826112c7565b9150506040830151848203604086015261136382826112c7565b9150506060830151848203606086015261137d82826112c7565b9150506080830151848203608086015261139782826112c7565b91505060a083015184820360a08601526113b182826112c7565b91505060c08301516113c660c086018261130a565b508091505092915050565b60006113dd8383611319565b905092915050565b6000602082019050919050565b60006113fd82611203565b611407818561120e565b9350836020820285016114198561121f565b8060005b85811015611455578484038952815161143685826113d1565b9450611441836113e5565b925060208a0199505060018101905061141d565b50829750879550505050505092915050565b6000602082019050818103600083015261148181846113f2565b905092915050565b600060059050919050565b600081905092915050565b6000819050919050565b6000602082019050919050565b60006114c182611489565b6114cb8185611494565b9350836020820285016114dd8561149f565b8060005b8581101561151957848403895281516114fa85826113d1565b9450611505836114a9565b925060208a019950506001810190506114e1565b50829750879550505050505092915050565b6000602082019050818103600083015261154581846114b6565b905092915050565b600080fd5b600080fd5b600080fd5b600060e0828403121561157257611571611557565b5b81905092915050565b6000602082840312156115915761159061154d565b5b600082013567ffffffffffffffff8111156115af576115ae611552565b5b6115bb8482850161155c565b91505092915050565b60008115159050919050565b6115d9816115c4565b82525050565b60006020820190506115f460008301846115d0565b92915050565b600080fd5b600080fd5b600080fd5b60008083601f84011261161f5761161e6115fa565b5b8235905067ffffffffffffffff81111561163c5761163b6115ff565b5b60208301915083600182028301111561165857611657611604565b5b9250929050565b60008060008060008060008060008060a08b8d0312156116825761168161154d565b5b60008b013567ffffffffffffffff8111156116a05761169f611552565b5b6116ac8d828e01611609565b9a509a505060208b013567ffffffffffffffff8111156116cf576116ce611552565b5b6116db8d828e01611609565b985098505060408b013567ffffffffffffffff8111156116fe576116fd611552565b5b61170a8d828e01611609565b965096505060608b013567ffffffffffffffff81111561172d5761172c611552565b5b6117398d828e01611609565b945094505060808b013567ffffffffffffffff81111561175c5761175b611552565b5b6117688d828e01611609565b92509250509295989b9194979a5092959850565b61178581611300565b811461179057600080fd5b50565b6000813590506117a28161177c565b92915050565b6000602082840312156117be576117bd61154d565b5b60006117cc84828501611793565b91505092915050565b7f4e487b7100000000000000000000000000000000000000000000000000000000600052602260045260246000fd5b6000600282049050600182168061181c57607f821691505b60208210810361182f5761182e6117d5565b5b50919050565b61183e8161124f565b811461184957600080fd5b50565b60008135905061185b81611835565b92915050565b6000602082840312156118775761187661154d565b5b60006118858482850161184c565b91505092915050565b7f4e487b7100000000000000000000000000000000000000000000000000000000600052603260045260246000fd5b600080fd5b600080fd5b600080fd5b600080833560016020038436030381126118e9576118e86118bd565b5b80840192508235915067ffffffffffffffff82111561190b5761190a6118c2565b5b602083019250600182023603831315611927576119266118c7565b5b509250929050565b600081905092915050565b82818337600083830152505050565b6000611955838561192f565b935061196283858461193a565b82840190509392505050565b600061197b828486611949565b91508190509392505050565b60008190508160005260206000209050919050565b600081546119a981611804565b6119b3818661192f565b945060018216600081146119ce57600181146119e357611a16565b60ff1983168652811515820286019350611a16565b6119ec85611987565b60005b83811015611a0e578154818901526001820191506020810190506119ef565b838801955050505b50505092915050565b6000611a2b828461199c565b915081905092915050565b60008135611a4381611835565b80915050919050565b60008160001b9050919050565b600073ffffffffffffffffffffffffffffffffffffffff611a7984611a4c565b9350801983169250808416831791505092915050565b6000819050919050565b6000611ab4611aaf611aaa8461122f565b611a8f565b61122f565b9050919050565b6000611ac682611a99565b9050919050565b6000611ad882611abb565b9050919050565b6000819050919050565b611af282611acd565b611b05611afe82611adf565b8354611a59565b8255505050565b600082905092915050565b7f4e487b7100000000000000000000000000000000000000000000000000000000600052604160045260246000fd5b60006020601f8301049050919050565b600082821b905092915050565b600060088302611b937fffffffffffffffffffffffffffffffffffffffffffffffffffffffffffffffff82611b56565b611b9d8683611b56565b95508019841693508086168417925050509392505050565b6000611bd0611bcb611bc684611300565b611a8f565b611300565b9050919050565b6000819050919050565b611bea83611bb5565b611bfe611bf682611bd7565b848454611b63565b825550505050565b600090565b611c13611c06565b611c1e818484611be1565b505050565b5b81811015611c4257611c37600082611c0b565b600181019050611c24565b5050565b601f821115611c8757611c5881611987565b611c6184611b46565b81016020851015611c70578190505b611c84611c7c85611b46565b830182611c23565b50505b505050565b600082821c905092915050565b6000611caa60001984600802611c8c565b1980831691505092915050565b6000611cc38383611c99565b9150826002028217905092915050565b611cdd8383611b0c565b67ffffffffffffffff811115611cf657611cf5611b17565b5b611d008254611804565b611d0b828285611c46565b6000601f831160018114611d3a5760008415611d28578287013590505b611d328582611cb7565b865550611d9a565b601f198416611d4886611987565b60005b82811015611d7057848901358255600182019150602085019450602081019050611d4b565b86831015611d8d5784890135611d89601f891682611c99565b8355505b6001600288020188555050505b50505050505050565b611dae838383611cd3565b505050565b60008135611dc08161177c565b80915050919050565b60007fffffffffffffffffffffffffffffffffffffffffffffffffffffffffffffffff611df584611a4c565b9350801983169250808416831791505092915050565b611e1482611bb5565b611e27611e2082611bd7565b8354611dc9565b8255505050565b600081016000830180611e4081611a36565b9050611e4c8184611ae9565b5050506001810160208301611e6181856118cc565b611e6c818386611da3565b505050506002810160408301611e8281856118cc565b611e8d818386611da3565b505050506003810160608301611ea381856118cc565b611eae818386611da3565b505050506004810160808301611ec481856118cc565b611ecf818386611da3565b505050506005810160a08301611ee581856118cc565b611ef0818386611da3565b505050506006810160c0830180611f0681611db3565b9050611f128184611e0b565b5050505050565b611f238282611e2e565b5050565b611f3082611270565b67ffffffffffffffff811115611f4957611f48611b17565b5b611f538254611804565b611f5e828285611c46565b600060209050601f831160018114611f915760008415611f7f578287015190505b611f898582611cb7565b865550611ff1565b601f198416611f9f86611987565b60005b82811015611fc757848901518255600182019150602085019450602081019050611fa2565b86831015611fe45784890151611fe0601f891682611c99565b8355505b6001600288020188555050505b505050505050565b7f4e487b7100000000000000000000000000000000000000000000000000000000600052601160045260246000fd5b600061203382611300565b915061203e83611300565b925082820190508082111561205657612055611ff9565b5b92915050565b60008154905061206b81611804565b9050919050565b818103612080575050612158565b6120898261205c565b67ffffffffffffffff8111156120a2576120a1611b17565b5b6120ac8254611804565b6120b7828285611c46565b6000601f8311600181146120e657600084156120d4578287015490505b6120de8582611cb7565b865550612151565b601f1984166120f487611987565b96506120ff86611987565b60005b8281101561212757848901548255600182019150600185019450602081019050612102565b868310156121445784890154612140601f891682611c99565b8355505b6001600288020188555050505b5050505050505b565b600061216582611270565b61216f818561192f565b935061217f81856020860161128c565b80840191505092915050565b6000612197828461215a565b915081905092915050565b600060e0830160008301516121ba6000860182611261565b50602083015184820360208601526121d282826112c7565b915050604083015184820360408601526121ec82826112c7565b9150506060830151848203606086015261220682826112c7565b9150506080830151848203608086015261222082826112c7565b91505060a083015184820360a086015261223a82826112c7565b91505060c083015161224f60c086018261130a565b508091505092915050565b6000602082019050818103600083015261227481846121a2565b90509291505056fea26469706673582212201dfb9c3821141bf5a9669f94c10754b30a7b35ad38b045afc8ff34d8e2cf0a1364736f6c634300081c0033",
    "linkReferences": {},
    "deployedLinkReferences": {}
}